:0A0F070000010202030304040505C3
:10080600E4F52CF52BF52AF529C203C200C202C273
:1008160001120E817E0C7F448E0A8F0B75120C75A9
:10082600135675080C75096075100C7511807514D2
:100836000C7515A0EE54E07003020952752D007573
:100846002E808E2F8F30C374CA9FFF740C9ECF24C8
:1008560002CF3400FEE48F288E27F526F525F524F1
:10086600F523F522F521AF28AE27AD26AC25AB241E
:10087600AA23A922A821C3120EE7502AE52E252471
:10088600F582E52D3523F58374CDF0E4FAF9F8E524
:10089600242401F524EA3523F523E93522F522E857
:1008A6003521F52180C0E4F524F523F522F521AFA5
:1008B60028AE27AD26AC25AB24AA23A922A821C39E
:1008C600120EE75035AE23AF24E5302FF582E52F23
:1008D6003EF583E0FDE52E2FF582E52D3EF583ED11
:1008E600F0E4FAF9F8EF2401F524EA3EF523E935B8
:1008F60022F522E83521F52180B5852D0A852E0BB6
:1009060074442480FF740C34FFFEC3E5139FF51373
:10091600E5129EF512C3E50D9FF50DE50C9EF50C4F
:10092600C3E50F9FF50FE50E9EF50EC3E5099FF58E
:1009360009E5089EF508C3E5119FF511E5109EF53A
:1009460010C3E5159FF515E5149EF514D2E843D8B6
:100956002090E668E04409F090E65CE0443DF0D281
:10096600AF90E680E054F7F0538EF8C203300105ED
:100976001203BEC201300329120F255024C20312EE
:100986000AD720001690E682E030E704E020E1EF87
:1009960090E682E030E604E020E0E4120DD8120F83
:0609A60027120F3180C78B
:0109AC002228
:1003BE0090E6B9E0700302049B1470030205442416
:1003CE00FE70030205D924FB70030204951470031A
:1003DE0002048F1470030204831470030204892430
:1003EE00056003020645120F29400302065190E6EE
:1003FE00BBE024FE602C14604724FD6016146031AF
:10040E0024067067E50A90E6B3F0E50B90E6B4F0CB
:10041E00020651E51290E6B3F0E51390E6B4F00251
:10042E000651E50C90E6B3F0E50D90E6B4F0020649
:10043E0051E50E90E6B3F0E50F90E6B4F0020651EA
:10044E0090E6BAE0FF120E04CAEECAC9EFC97B01EC
:10045E00EA49600DEE90E6B3F0EF90E6B4F00206D6
:10046E005190E6A0E04401F002065190E6A0E0446F
:10047E0001F0020651120ED5020651120F19020694
:10048E0051120F11020651120EC3020651120F2BFA
:10049E00400302065190E6B8E0247F602B14603CC6
:1004AE002402600302053AA200E433FF25E0FFA216
:1004BE0002E4334F90E740F0E4A3F090E68AF09028
:1004CE00E68B7402F0020651E490E740F0A3F09040
:1004DE00E68AF090E68B7402F002065190E6BCE0DC
:1004EE00547EFF7E00E0D3948040067C007D018028
:1004FE00047C007D00EC4EFEED4F2407F582740F58
:10050E003EF583E493FF3395E0FEEF24A1FFEE3436
:10051E00E68F82F583E0540190E740F0E4A3F0907B
:10052E00E68AF090E68B7402F002065190E6A0E0A7
:10053E004401F0020651120F2D400302065190E6BF
:10054E00B8E024FE601D2402600302065190E6BA54
:10055E00E0B40105C20002065190E6A0E04401F0AD
:10056E0002065190E6BAE0705990E6BCE0547EFF68
:10057E007E00E0D3948040067C007D0180047C00E8
:10058E007D00EC4EFEED4F2407F582740F3EF58391
:10059E00E493FF3395E0FEEF24A1FFEE34E68F8265
:1005AE00F583E054FEF090E6BCE05480FF13131385
:1005BE00541FFFE0540F2F90E683F0E04420F0022A
:1005CE00065190E6A0E04401F08078120F2F507390
:1005DE0090E6B8E024FE60202402706790E6BAE050
:1005EE00B40104D200805C90E6BAE06402605490DC
:1005FE00E6A0E04401F0804B90E6BCE0547EFF7E26
:10060E0000E0D3948040067C007D0180047C007D58
:10061E0000EC4EFEED4F2407F582740F3EF583E499
:10062E0093FF3395E0FEEF24A1FFEE34E68F82F5C3
:10063E0083E04401F0800C120080500790E6A0E0A9
:0A064E004401F090E6A0E04480F0C3
:01065800227F
:03003300020AFCC2
:040AFC0053D8EF32AA
:100C44001201000200000040560406B00000010238
:100C540000010A0600020000004001000902200011
:100C6400010100A0320904000002FF000000070592
:100C740002020002000705860200020009022000A9
:100C8400010100A0320904000002FF000000070572
:100C9400010240000007058102400000040309042A
:100CA4001003430079007000720065007300730044
:100CB400160345005A002D00550053004200200041
:080CC400460058003200000058
:100DD80090E682E030E004E020E60B90E682E03026
:100DE800E119E030E71590E680E04401F07F147ED9
:0C0DF80000120D1F90E680E054FEF02277
:100AD70090E682E044C0F090E681F0438701000091
:040AE70000000022E9
:020E0400A9073C
:100E0600AE14AF158F828E83A3E064037017AD0115
:100E160019ED7001228F828E83E07C002FFDEC3E5F
:090E2600FEAF0580DF7E007F00B5
:010E2F0022A0
:100D1F008E318F3290E600E054187012E5322401C4
:100D2F00FFE43531C313F531EF13F532801590E63B
:100D3F0000E05418FFBF100BE53225E0F532E53126
:100D4F0033F531E5321532AE31700215314E600593
:060D5F00120AEB80EE22F7
:100AEB007400F58690FDA57C05A3E582458370F91E
:010AFB0022D8
:03004300020B00AD
:03005300020B009D
:100B0000020E5100020EAD00020E9700020E6900A7
:100B1000020DA200020D6500020F3200020F330029
:100B2000020F3400020F3500020F3600020F3700AB
:100B3000020F3800020F3900020F3A00020F3B008B
:100B4000020F3C00020F3300020F3D00020F3E0077
:100B5000020F3F00020F4000020F4100020F42004F
:100B6000020F4300020F3300020F3300020F330065
:100B7000020F4400020F4500020F4600020F47001B
:100B8000020F4800020F4900020F4A00020F4B00FB
:100B9000020F4C00020F4D00020F4E00020F4F00DB
:100BA000020F5000020F5100020F5200020F5300BB
:080BB000020F5400020F550072
:030F2100011600B6
:0F0EF800E5B254F74407F5B2D280D281D28222FC
:100E3000E4FEEFC4131313540124FF9282C281EF26
:100E400025E0FFA283E433CF4FCFD2810EBE08E26C
:010E5000227F
:100CCC00208326EF1FCAEECA70011ED39400EA944B
:100CDC00004016E4FCFDC3ED9440EC940050E12080
:100CEC0083DE0DBD00010C80ED308326EF1FCAEEB4
:100CFC00CA70011ED39400EA94004016E4FCFDC3B4
:100D0C00ED9440EC940050E13083DE0DBD00010CFD
:020D1C0080ED68
:010D1E0022B2
:060659008F348C358D3654
:10065F00E53C453B7002C322E4FFEFC3953CE53B0D
:10066F006480F8748098501074402FF582E434E75A
:10067F00F58374FFF00F80E27EFF90E678E030E6BE
:10068F000ACDEECD1EEDD3940050EFEE7002C322D3
:10069F00D3E5369400E53564809480500302075407
:1006AF0090E678E04480F0E53454FE90E679F07EF1
:1006BF00FF90E678E020E00ECDEECD1EEDD3940056
:1006CF004004E0F980EBEE600790E678E020E10966
:1006DF0090E678E04440F0C322D3E5369401E53547
:1006EF0064809480403090E679E53AF07EFF90E6A2
:1006FF0078E020E00ECDEECD1EEDD394004004E067
:10070F00F980EBEE600790E678E020E10990E6785B
:10071F00E04440F0C32290E679EBF07EFF90E6785C
:10072F00E020E00ECDEECD1EEDD394004004E0F9B5
:10073F0080EBEE600790E678E020E10990E678E044
:10074F004440F0C32290E678E04480F0E534440161
:10075F0090E679F07EFF90E678E020E00ECDEECDCA
:10076F001EEDD394004004E0F980EBEE600790E6B5
:10077F0078E020E10990E678E04440F0C322E4FFFE
:10078F00EFC3953CE53B6480F87480985067EF2485
:10079F0001FDE433FCED653C7003EC653B700790A5
:1007AF00E678E04420F0EF700590E679E0F97EFFFF
:1007BF0090E678E020E012CDEECD1EEDD394004010
:1007CF0008EE70ECE04440F022EF2401FDE433FC2E
:1007DF00ED653C7003EC653B700790E678E04440B4
:1007EF00F090E679E0FD74402FF582E434E7F5836D
:0607FF00EDF00F808BD32A
:0108050022D0
:0409AD008C358D36C2
:1009B100E53C453B7002C3227EFF90E678E030E6DD
:1009C1000ACDEECD1EEDD3940050EFEE7002C3229E
:1009D10090E678E04480F0EF54FE90E679F07EFFF7
:1009E10090E678E020E00ECFEECF1EEFD3940040EA
:1009F10004E0F980EBEE600790E678E020E10990F1
:100A0100E678E04440F0C322D3E5369401E535644D
:100A1100809480403090E679E53AF07EFF90E67868
:100A2100E020E00ECFEECF1EEFD394004004E0F9BA
:100A310080EBEE600790E678E020E10990E678E04F
:100A41004440F0C322D3E5369400E53564809480B8
:100A5100402F90E679EBF07EFF90E678E020E00E03
:100A6100CFEECF1EEFD394004004E0F980EBEE60AF
:100A71000790E678E020E10990E678E04440F0C391
:100A810022E4FFEFC3953CE53B6480F87480985005
:100A91003C74402FF582E434E7F583E090E679F089
:100AA1007EFF90E678E020E00ECDEECD1EEDD394F2
:100AB100004004E0F980EBEE600790E678E020E189
:100AC1000990E678E04440F0C3220F80B690E678C2
:050AD100E04440F0D3F9
:010AD60022FD
:100E810090E605E054FDF0D20090E600E054E7441E
:060E910010F0120EF82221
:010F3100229D
:020F2500D322D5
:020F2700D322D3
:020F2900D322D1
:080F110090E6BAE0F518D322C6
:100EC30090E740E518F0E490E68AF090E68B04F0B2
:020ED300D32228
:080F190090E6BAE0F517D322BF
:100ED50090E740E517F0E490E68AF090E68B04F0A1
:020EE500D32216
:020F2B00D322CF
:020F2D00D322CD
:020F2F00D322CB
:1000800090E6B9E02425700302017624FC400302C7
:1000900002E57003020382240560030203BC90E6BC
:1000A000B8E064C0706F90E6A0E020E1F9C28090F3
:1000B000E6BDE0FE90E6BCE0FDEEEDFF120CCCE408
:1000C000F531F53290E6BEE0FFC3E5329F7480F86B
:1000D0006531985031E5324531700F90E6BAE0FF56
:1000E000120E3090E740EFF08012E4FF120E3074F1
:1000F000402532F582E434E7F583EFF00532E5324E
:100100007002053180BED280E490E68AF090E6BEAF
:10011000E090E68BF090E6B8E0644060030203BC38
:1001200090E68AF090E68BF090E6A0E020E1F9C23C
:100130008090E6BDE0FE90E6BCE0FDEEEDFF120C27
:10014000CCE4F531F53290E6BEE0FFC3E5329F74B2
:1001500080F8653198501A74402532F582E434E70E
:10016000F583E0FF120E300532E532700205318072
:10017000D5D2800203BC90E6B8E064C060030202FE
:100180003090E6A0E020E1F9E4F531F53290E6BEEA
:10019000E0FFC3E5329F7480F865319840030202A6
:1001A00023E5317073E53214602014602D14603A39
:1001B0001460471460542405705E74402532F58243
:1001C000E434E7F583E580F0804E74402532F58213
:1001D000E434E7F583E5B2F0803E74402532F582E1
:1001E000E434E7F583E590F0802E74402532F58203
:1001F000E434E7F583E5B3F0801E74402532F582E0
:10020000E434E7F583E5B0F0800E74402532F582E2
:10021000E434E7F583E5B5F00532E53270020531E7
:1002200002018DE490E68AF090E6BEE090E68BF065
:1002300090E6B8E0644060030203BC90E68AF09068
:10024000E68BF090E6A0E020E1F9E4F531F532909C
:10025000E6BEE0FFC3E5329F7480F8653198400345
:100260000203BCE5317073E53214602014602D1474
:10027000603A1460471460542405705E744025325F
:10028000F582E434E7F583E0F580804E7440253252
:10029000F582E434E7F583E0F5B2803E7440253220
:1002A000F582E434E7F583E0F590802E7440253242
:1002B000F582E434E7F583E0F5B3801E744025321F
:1002C000F582E434E7F583E0F5B0800E7440253222
:1002D000F582E434E7F583E0F5B50532E5327002E6
:1002E000053102024F90E6B9E02423600C14600E41
:1002F0002402700DE4F533800875330180037533F3
:100300000290E6B8E064C0703A90E6A0E020E1F91F
:10031000E533FD7C0090E6BCE0FB7A00A3E0753994
:1003200000F53AA3E0753B00F53C90E6BAE0FF1219
:10033000065940020516E490E68AF090E6BEE09089
:10034000E68BF090E6B8E06440707190E68AF09039
:10035000E68BF090E6A0E020E1F9E533FD7C00902B
:10036000E6BCE0FB7A00A3E0753900F53AA3E0753E
:100370003B00F53C90E6BAE0FF1209AD403E0516A1
:10038000803A90E6B8E0B4C01C90E6A0E020E1F925
:1003900090E740E516F0E4F51690E68AF090E6BEA8
:1003A000E090E68BF090E6B8E0B44010E490E68A86
:0D03B000F090E68BF090E6A0E020E1F9C3AC
:0103BD00221D
:100E5100C0E0C083C082D2015391EF90E65D74017E
:080E6100F0D082D083D0E03212
:100E9700C0E0C083C0825391EF90E65D7404F0D048
:060EA70082D083D0E0328E
:100EAD00C0E0C083C0825391EF90E65D7402F0D034
:060EBD0082D083D0E03278
:100DA200C0E0C083C08285100C85110D850D82853F
:100DB2000C83A37402F085080E85090F850F8285C6
:100DC2000E83A37407F05391EF90E65D7410F0D098
:060DD20082D083D0E03264
:100E6900C0E0C083C082D2035391EF90E65D74085D
:080E7900F0D082D083D0E032FA
:100D6500C0E0C083C08290E680E030E72085080CB3
:100D750085090D850D82850C83A37402F085100EFF
:100D850085110F850F82850E83A37407F05391EFAC
:0D0D950090E65D7420F0D082D083D0E03273
:010F3200328C
:010F3300328B
:010F3400328A
:010F35003289
:010F36003288
:010F37003287
:010F38003286
:010F39003285
:010F3A003284
:010F3B003283
:010F3C003282
:010F3D003281
:010F3E003280
:010F3F00327F
:010F4000327E
:010F4100327D
:010F4200327C
:010F4300327B
:010F4400327A
:010F45003279
:010F46003278
:010F47003277
:010F48003276
:010F49003275
:010F4A003274
:010F4B003273
:010F4C003272
:010F4D003271
:010F4E003270
:010F4F00326F
:010F5000326E
:010F5100326D
:010F5200326C
:010F5300326B
:010F5400326A
:010F55003269
:03000000020BB838
:0C0BB800787FE4F6D8FD75813C020BFF4D
:100EE700EB9FF5F0EA9E42F0E99D42F0E89C45F061
:010EF70022D8
:100BC400020806E493A3F8E493A34003F68001F239
:100BD40008DFF48029E493A3F85407240CC8C33332
:100BE400C4540F4420C8834004F456800146F6DF01
:100BF400E4800B0102040810204080900F21E47E61
:100C0400019360BCA3FF543F30E509541FFEE493F5
:100C1400A360010ECF54C025E060A840B8E493A3BC
:100C2400FAE493A3F8E493A3C8C582C8CAC583CAE7
:100C3400F0A3C8C582C8CAC583CADFE9DEE780BE9F
:010F240000CC
:00000001FF
